:020000040800F2
:1000000080E7012099010008BD300008BF300008DA
:10001000C3300008C7300008CB30000800000000E3
:10002000000000000000000000000000CF300008C9
:10003000D130000800000000D3300008D53000089F
:10004000B3010008B3010008B3010008B3010008C0
:10005000B3010008B3010008B3010008B3010008B0
:10006000B3010008B3010008B3010008B3010008A0
:10007000B3010008B3010008B3010008B301000890
:10008000B3010008B3010008B3010008B301000880
:10009000B3010008B3010008B3010008B301000870
:1000A000B3010008B3010008B3010008B301000860
:1000B000ED300008F5300008FD300008B3010008FD
:1000C000B3010008B3010008B3010008B301000840
:1000D000B3010008DD300008B3010008B3010008D7
:1000E000B3010008B3010008B3010008B301000820
:1000F000B3010008B3010008B3010008B301000810
:10010000B301000805310008B3010008B30100087D
:10011000E5300008B3010008B3010008B30100088E
:10012000B3010008B3010008B30100080D31000855
:10013000B3010008B3010008B3010008B3010008CF
:10014000B3010008B3010008B3010008B3010008BF
:10015000B3010008B3010008B3010008B3010008AF
:10016000B3010008B3010008B3010008B30100089F
:10017000B3010008B3010008B3010008B30100088F
:10018000B3010008DFF80CD016F06AFE0048004703
:10019000252D000880E701200648804706480047D3
:1001A000FEE7FEE7FEE7FEE7FEE7FEE7FEE7FEE727
:1001B000FEE7FEE7052C00088501000810B504469F
:1001C0008C48844208D10121084600F000FB002140
:1001D000012000F0FCFA5EE08748844208D101214A
:1001E000022000F0F4FA0021022000F0F0FA52E0C0
:1001F0008248844208D10121042000F0E8FA00215D
:10020000042000F0E4FA46E07D48844208D1012150
:10021000082000F0DCFA0021082000F0D8FA3AE0CB
:100220007848844208D10121102000F0D0FA002142
:10023000102000F0CCFA2EE07348844208D101214E
:10024000202000F0C4FA0021202000F0C0FA22E0B3
:100250006E48844208D10121402000F0B8FA002104
:10026000402000F0B4FA16E06948844208D1012128
:10027000802000F0ACFA0021802000F0A8FA0AE00B
:100280006448844207D10121801500F0A0FA0021C2
:10029000A01500F09CFA10BDF0B50A46002100231D
:1002A000002400BF3DE0012505FA01F3156805EAC9
:1002B00003049C4234D105684F000326BE40B54379
:1002C000056015794E00B54006683543056015791F
:1002D000012D02D01579022D16D185684F00032615
:1002E000BE40B543856055794E00B54086683543BC
:1002F0008560456801268E40B5434560456896791E
:100300008E40B6B235434560C5684F000326BE40F7
:10031000B543C560D5794E00B540C6683543C56064
:10032000491C1029BFD3F0BD4FF6FF7101600021B9
:10033000017141718171C171704708B54FF480320C
:100340000092009A0A430092009AC261C161009A29
:10035000C261C2690092C269009208BD02460020D3
:1003600013690B400BB1012000E0002070470146EB
:10037000086980B270470246002053690B400BB1F8
:10038000012000E0002070470146486980B27047B4
:1003900001837047418370470AB1018300E04183C4
:1003A00070474161704742694A4042617047F0B509
:1003B000002300244D07ED0E02FA05F3CE1000F1E4
:1003C000200555F826504E07F70E0F26BE40B543C0
:1003D000CF1000F1200646F82750CE1000F120057E
:1003E00055F8265045EA0304CE1000F1200545F8E3
:1003F0002640F0BD00000240000402400008024018
:10040000000C02400010024000140240001802409C
:10041000001C024000200240FA48006840F0010041
:10042000F84908600020F74908310860F54800687D
:10043000F5490840F3490860F448091D0860081FA1
:10044000006820F48020091F08600020ED490C316D
:10045000086070470021EB4A921C11701146087029
:10046000704710B501460022002300204A11012ADE
:1004700002D1E44C236808E0022A03D1E14C703435
:10048000236802E0DF4C7434236801F01F0201246A
:1004900094401C400CB1012000E0002010BD38B594
:1004A000002000900024002500BF3120FFF7D9FF75
:1004B00005460098401C00900098B0F5A06F01D050
:1004C000002DF2D03120FFF7CCFF08B1012400E06D
:1004D0000024204638BD01460020CA4A106820F09A
:1004E000F80040EAC10010607047C94908607047D1
:1004F0000021C44A703211701170012802D0042802
:100500000AD104E00121BF4A7032117005E00521D3
:10051000BC4A7032117000E000BF00BF7047BD4997
:100520000860704770B5049C41EA82150126C6EB4D
:10053000530645EA0645054345EA0465B14E361DB6
:10054000356070BDB24908667047820142EA0172A7
:10055000AC4B84331A607047AD4988667047AC492C
:10056000C864704702460020A64B0833186820F084
:10057000EC6042EA01031843A24B0833186070474D
:10058000024600209F4B0833186820F0784042EA6A
:10059000010318439B4B0833186070470146002045
:1005A000984A0832106820F0030008431060704732
:1005B00094480830006800F00C00704701460020A5
:1005C000904A0832106820F0F0000843106070472D
:1005D000014600208B4A0832106820F4E05008439E
:1005E0001060704701460020864A0832106820F4E7
:1005F000604040EAC10010607047F0B50021002261
:1006000000240225002602237E4F08373F6807F0AA
:100610000C0121B1042905D0082937D105E07E4F0E
:10062000076036E07D4F076033E0764F3F1D3F683F
:10063000C7F38056734F3F1D3F6807F03F036EB10D
:10064000764FB7FBF3F7DFF8BCC10CF1040CDCF814
:1006500000C0CCF3881C07FB0CF40CE06E4FB7FB1A
:10066000F3F7DFF8A0C10CF1040CDCF800C0CCF308
:10067000881C07FB0CF4634F3F1D3F68C7F301471D
:100680007F1C7D00B4FBF5F7076002E0624F076056
:1006900000BF00BF5B4F08373F6807F0F001090952
:1006A0005F4F7A5C0768D7404760564F08373F680E
:1006B00007F4E051890A5A4F7A5C4768D74087604F
:1006C000504F08373F6807F46041490B544F7A5C3C
:1006D0004768D740C760F0BD002100F44072B2F512
:1006E000407F0AD1474A0832116821F4F8114D4A77
:1006F00002401143434A08321160424A7032126884
:10070000C0F30B031A433F4B70331A6070474149E3
:100710004439086070473F49403908607047424992
:100720000860704739B1374A303212680243354B9E
:1007300030331A6006E0334A303212688243314B5C
:1007400030331A60704739B12E4A3432126802438E
:100750002C4B34331A6006E02A4A34321268824342
:10076000284B34331A60704739B1264A3832126840
:100770000243244B38331A6006E0224A38321268AA
:100780008243204B38331A60704739B11D4A4032DA
:10079000126802431B4B40331A6006E0194A40328C
:1007A00012688243174B40331A60704739B1154ABB
:1007B000443212680243134B44331A6006E0114A74
:1007C0004432126882430F4B44331A60704739B188
:1007D0000C4A1032126802430A4B10331A6006E0CA
:1007E000084A103212688243064B10331A60704771
:1007F000E1B1044A143212680243024B14331A6006
:1008000019E0000000380240FFFFF6FE103000241F
:1008100000004742800E47420024F40040787D01EA
:1008200000000020FFFCFF0F5C0147425B4A12689A
:1008300082435A4B1A60704739B1584A121D1268E8
:100840000243564B1B1D1A6006E0544A121D1268E3
:100850008243524B1B1D1A60704739B14F4A0C320C
:10086000126802434D4B0C331A6006E04B4A0C32BF
:1008700012688243494B0C331A60704739B1474ABA
:10088000103212680243454B10331A6006E0434AA7
:10089000103212688243414B10331A60704739B1ED
:1008A0003E4A3C32126802433C4B3C331A6006E03D
:1008B0003A4A3C3212688243384B3C331A607047E4
:1008C00039B1364A403212680243344B40331A6021
:1008D00006E0324A403212688243304B40331A609D
:1008E000704739B12D4A4432126802432B4B4433CE
:1008F0001A6006E0294A443212688243274B443387
:100900001A60704739B1254A4C3212680243234BB2
:100910004C331A6006E0214A4C32126882431F4B66
:100920004C331A60704739B11C4A50321268024386
:100930001A4B50331A6006E0184A5032126882434C
:10094000164B50331A60704739B1144AD21F1278CF
:100950000243124BDB1F1A7006E0104AD21F1278B6
:1009600082430E4BDB1F1A7070470C4860300068E2
:1009700040F08070094960310860704701460020EE
:10098000064A083A12680A400AB1012000E0002035
:1009900070470249891F08707047000014380240F0
:1009A00010B50446F748844208D101211020FFF712
:1009B00065FF00211020FFF761FF3EE0F24884420E
:1009C00009D101214804FFF748FF00214FF400300E
:1009D000FFF743FF31E0ED48844209D1012188044B
:1009E000FFF73BFF00214FF48020FFF736FF24E0A4
:1009F000E748844209D10121C804FFF72EFF0021F6
:100A00004FF40020FFF729FF17E0E248844209D1A4
:100A100001210805FFF721FF00214FF48010FFF7A7
:100A20001CFF0AE0DC48844207D101212020FFF7A7
:100A300025FF00212020FFF721FF10BD2DE9FF47F2
:100A400005460E460024A14600BFA046B08900B16D
:100A500000BF2C8A24F44054F08804432C82AC89D3
:100A600041F20C608443B08831890843718908439E
:100A70000443AC81AC8A24F44074B0890443AC8252
:100A80006846FFF7BAFDBF48854202D0C24885429A
:100A900002D1DDF80C9001E0DDF80890A88900F49F
:100AA000004040B109EBC90000EB09103168490072
:100AB000B0FBF1F707E009EBC90000EB0910316862
:100AC0008900B0FBF1F76420B7FBF0F004012009C6
:100AD000642101FB1078A88900F4004040B1322065
:100AE00000EBC800B0FBF1F000F00700044308E0A1
:100AF000322000EB08106421B0FBF1F000F00F0091
:100B000004432C81BDE8FF874FF41651016000219A
:100B10008180C18001810C21418100218181704748
:100B200010B502460020108A20F470600B884C88B3
:100B300023438C882343CC8823431843108210BD61
:100B40000021018041808180C180704721B182896C
:100B500042F40052828104E082894DF6FF731A400C
:100B600082817047028B02F47F420283028B0A4328
:100B70000283704721B1828942F40042828103E0FE
:100B80008289C2F30E028281704721B1828A42F4C7
:100B90000062828204E0828A4FF2FF731A408282EE
:100BA0007047C1F308028280704701468888C0F30D
:100BB00008007047028A4FF6F0731A400282028AD8
:100BC0000A430282704721B1828942F00202828187
:100BD00004E082894FF6FD731A4082817047828952
:100BE0004FF2FF731A40828182890A4382817047E3
:100BF000028A4FF6DF731A400282028A0A43028297
:100C0000704721B1028A42F48042028204E0028AE3
:100C10004BF6FF731A4002827047818941F001014F
:100C20008181704721B1828A42F00802828204E009
:100C3000828A4FF6F7731A4082827047028BD2B2D3
:100C40000283028B42EA01220283704721B1828A29
:100C500042F02002828204E0828A4FF6DF731A405B
:100C60008282704721B1828A42F01002828204E0BF
:100C7000828A4FF6EF731A4082827047828A4FF65B
:100C8000FB731A408282828A0A438282704721B1B2
:100C9000828A42F00202828204E0828A4FF6FD7369
:100CA0001A40828270471AB1838A0B43838202E022
:100CB000838A8B4383827047F0B503460024002665
:100CC0000025002040F66A17B94200D100BF18463F
:100CD000C1F3421401F01F06012707FA06F5012CA3
:100CE00001D10C3004E0022C01D1103000E01430AE
:100CF0001AB107682F43076002E00768AF43076037
:100D0000F0BD02460020B1F5007F00D100BF13887E
:100D10000B400BB1012000E00020704701F400728D
:100D2000B2F5007F00D100BFCA430280704770B5A2
:100D30000246002400230025002040F66A16B14236
:100D400000D100BFC1F3421501F01F03012606FACE
:100D500003F3012D02D19689334006E0022D02D122
:100D6000168A334001E0968A33400C12012606FAB7
:100D700004F41688344013B10CB1012000E00020C7
:100D800070BD0000001001400044004000480040D9
:100D9000004C0040005000400014014010B50022FB
:100DA000002340F66A14A14200D100BF0A120124B8
:100DB0009440A3B2DC43048010BD0000016821F020
:100DC000010101600021016041608160C160016139
:100DD00021214161DB49884204D13D21D94A103AA1
:100DE00091608CE0D7491831884205D14FF4746185
:100DF000D44A103A916082E0D2493031884205D11C
:100E00004FF47411CF4A103A916078E0CD494831DF
:100E1000884205D14FF07461CA4A103A91606EE081
:100E2000C8496031884204D1C749C64A103AD160E6
:100E300065E0C4497831884204D1C449C14A103AB6
:100E4000D1605CE0BF499031884204D1C049BD4ABD
:100E5000103AD16053E0BB49A831884205D14FF028
:100E60003D51B84A103AD16049E0BA49884204D1AC
:100E70003D21B84A083A116041E0B649183188422C
:100E800005D14FF47461B34A083A116037E0B149B3
:100E90003031884205D14FF47411AE4A083A1160DE
:100EA0002DE0AC494831884205D14FF07461A94A20
:100EB000083A116023E0A7496031884204D1A24971
:100EC000A44A121F11601AE0A2497831884204D165
:100ED0009E49A04A121F116011E09E49903188423C
:100EE00004D19B499B4A121F116008E09949A8311F
:100EF000884204D14FF03D51964A121F116070474D
:100F000010B500220268944B1A40CC680B6823434A
:100F10004C6923438C692343CC6923430C6A2343E4
:100F20004C6A23438C6A23434C6B23438C6B2343CF
:100F30001A430260426922F00702D1E90B342343CD
:100F40001A4342610B6943604B6883608B68C360DE
:100F500010BD0021016041608160C160016141619B
:100F60008161C161016241628162C1620163416369
:100F70008163704721B1026842F00102026003E020
:100F8000026822F001020260704721B1026842F457
:100F90000042026003E0026822F4004202607047EF
:100FA00021B1026842F02002026003E0026822F0F0
:100FB000200202607047416070470146486880B275
:100FC000704722B1036843F40023036003E0036821
:100FD00023F4002303600161704721B1026842F4E9
:100FE0008022026003E0026822F4802202607047DF
:100FF0000AB1016100E0C1607047014600200A6843
:1010000002F400220AB1012000E0002070470146EE
:1010100000200A6802F001020AB1012000E000206D
:101020007047014600204A6902F03800704730B529
:1010300003460A4600200024464DAB4202D24149F5
:10104000103901E04349103902F000550DB14C68E8
:1010500000E00C68414D2C4004EA02050DB101206E
:1010600000E0002030BD02463A4B9A4202D2354899
:10107000103801E03748103801F000531BB1374BEE
:101080000B40C36002E0354B0B408360704710B5E6
:1010900001F080034BB122B1436943F08003436107
:1010A00003E0436923F08003436180290BD02AB118
:1010B000036801F01E042343036004E0036801F0A9
:1010C0001E04A343036010BD70B502460020002437
:1010D0000025204EB24202D21A4B103B01E01D4BBC
:1010E000103B1F4E0E4036B11E2606EAD12416686C
:1010F00006EA040502E0566906F0800501F0005694
:101100000EB15C6800E01C68144E344004EA01062D
:1011100016B10DB1012000E0002070BD02460D4B5C
:101120009A4202D20748103801E00A48103801F00C
:1011300000531BB1094B0B40C36002E0074B0B404F
:1011400083607047106002403D000020400F002087
:1011500000003D20106402403F801CF07D0F7D0F99
:101160003C0F3C0F10B501210802FFF787FB00215F
:101170004FF48070FFF782FB10BD30B502460020AF
:1011800000235068F84C20400D790C6844EA05248F
:10119000204350609068F54C2040D1E903542C4323
:1011A0008D682C434D7944EA450420439060D06A11
:1011B00020F470000C7D641EE4B2234340EA035027
:1011C000D06230BD00210160017141718160C16058
:1011D00001610121017570470021E54A1168E54A66
:1011E0001140D0E900231A4383681A43C3681A43A5
:1011F0001143E14AC2F804137047002101604160C5
:101200008160C160704721B1826842F00102826052
:1012100003E0826822F00102826070470A460021E2
:101220004168D64B19401143416070474162826268
:1012300070470A460021416821F01F0111434160B7
:10124000704738B1CA49096841F40001CA4AC2F876
:10125000041306E0C649096821F40001C64AC2F831
:101260000413704738B1C249096841F48001C24A89
:10127000C2F8041306E0BE49096821F48001BE4AA1
:10128000C2F804137047F0B504460D460020002153
:10129000092D11DDE068A5F10A0606EB46070726D1
:1012A00006FA07F18843A5F10A0606EB460603FA9B
:1012B00006F10843E0600CE0206905EB45070726CE
:1012C00006FA07F1884305EB450603FA06F10843E1
:1012D0002061072A0FDA606B561E06EB86071F2671
:1012E00006FA07F18843561E06EB860605FA06F154
:1012F0000843606322E00D2A0FDA206BD61F06EB4D
:1013000086071F2606FA07F18843D61F06EB8606D6
:1013100005FA06F10843206310E0E06AA2F10D0629
:1013200006EB86071F2606FA07F18843A2F10D0691
:1013300006EB860605FA06F10843E062F0BD816817
:1013400041F0804181607047014600208A6802F4C4
:1013500080020AB1012000E00020704721B18268BC
:1013600042F48062826003E0826822F480628260DC
:10137000704721B1826842F00202826003E0826815
:1013800022F002028260704710B50A460021002355
:10139000416821F46041531E41EA4331416010BD70
:1013A00021B1426842F40062426003E0426822F4E4
:1013B0000062426070470146C86C80B270476C485A
:1013C000001D0068704721B1826842F4807282601B
:1013D00003E0826822F480728260704721B18268E3
:1013E00042F40072826003E0826822F4007282603C
:1013F000704738B15E49096841F400515E4AC2F84D
:10140000041306E05A49096821F400515A4AC2F807
:1014100004137047F0B5044615460020002200264C
:10142000092911DDE068A1F10A0707EB470C07273E
:1014300007FA0CF29043A1F10A0707EB470703FAFA
:1014400007F21043E0600CE0206901EB410C072734
:1014500007FA0CF2904301EB410703FA07F210433D
:101460002061A06BC0F30156EF1C06F1010CA7EB45
:101470000C0707EB870C1F2707FA0CF29043EF1CB1
:1014800006F1010CA7EB0C0707EB870701FA07F23F
:101490001043A063F0BD10B50A4600210023816B04
:1014A00021F44011531E41EA0351816310BD08B578
:1014B000002300930090009B0B440093009B1A6054
:1014C00008BD0A460021816821F470211143816022
:1014D00070470A460021816821F440111143816060
:1014E0007047816841F480018160704701460020A7
:1014F0008A6802F480020AB1012000E000207047EF
:1015000021B1426842F48062426003E0426822F402
:1015100080624260704721B1426842F4805242606A
:1015200003E0426822F480524260704708B50246E8
:1015300000200090009201F12800009B18440090C8
:101540000098006880B208BD10B50B460021D9B2E2
:10155000012404FA01F11AB144680C43446002E02A
:1015600044688C43446010BDFFFEFFFCFDF7FFC0E4
:1015700004230140E030FCFF00200140FFFD3FFF5D
:101580000246002013680B400BB1012000E0002050
:101590007047CA430260704770B5024600200023BE
:1015A00000240B12556801268E4005EA06041568D2
:1015B0001D4015B10CB1012000E0002070BD0022DB
:1015C0000A12D3430360704732490143324A116023
:1015D000704770B5002100230F22C4781CB32E4C35
:1015E000246804F4E064C4F5E064C4F30721C1F1A5
:1015F0000404E3B20A4144789C40E1B28478144088
:1016000021430C07210E254C05786155047804F020
:101610001F050124AC4005786D11AD0005F1E025F2
:10162000C5F8004109E0047804F01F050124AC402E
:101630001B4D0678761145F8264070BD194A0A40C0
:101640000243154B1B1F1A60704739B1124A121D15
:1016500012680243104B1B1D1A6006E00E4A121D51
:10166000126882430C4B1B1D1A607047042808D176
:101670004FF0E021096941F004014FF0E0221161CF
:1016800007E04FF0E021096921F004014FF0E0226A
:10169000116170470000FA050CED00E000E400E085
:1016A00080E100E080FFFF1F30B943F2DB028100E0
:1016B000A1F1C0410A6005E043F2D2028100A1F12C
:1016C000C0410A606FF07042411C8900A1F1C04125
:1016D0000A608100A1F1C041C1F804217047D0E93E
:1016E00001121143C2681143026911434269114357
:1016F00082691143C2691143026A1143426A11436C
:10170000826A1143C26A1143026B1143026892005C
:10171000A2F1C0421160816808290BD101688900DB
:10172000A1F1C041096841F0400201688900A1F1BE
:10173000C0410A60416B0968426B526841EA02117C
:10174000426B926841EA0221426B928941EA02416E
:10175000426B128A41EA0251426B127D41EA0261F8
:10176000426B926911430268521C9200A2F1C0427E
:101770001160C16AB1F5804F1BD1816B0968826B22
:10178000526841EA0211826B926841EA0221826B3F
:10179000128A41EA0251826B127D41EA0261826B38
:1017A0009269114302689200A2F1C042C2F804118A
:1017B00007E06FF0704201688900A1F1C041C1F8F3
:1017C00004217047002101600221416000218160F5
:1017D000C160016141618161C16101624FF4805169
:1017E0004162490081620021C16201630F21426BA5
:1017F0001160426B5160FF21426B91600F21426B7F
:10180000D160426B1161426B51610021426B916169
:101810000F21826B1160826B5160FF21826B91609E
:101820000F21826BD160826B1161826B516100214B
:10183000826B9161704751B18200A2F1C04212687F
:1018400042F001038200A2F1C042136009E082006D
:10185000A2F1C0421268F94B1A408300A3F1C043C1
:101860001A60704710280AD118214FF020421166E3
:10187000402151664FF0FC319166D16610E018218D
:10188000EF4A116040214FF02042C2F884104FF01F
:10189000FC31EB4A083211604FF02042C2F88C1044
:1018A000704730B5002100220023446844F008044A
:1018B00085682C43C5682C4305692C43456944EA77
:1018C0004524856944EA4531C4692468C5696D6861
:1018D00044EA0524C5692D8944EA0544C5692D7B80
:1018E00044EA0562046A2468056A6D6844EA0524CE
:1018F000056A2D8944EA0544056A2D7B44EA05639F
:101900000468102C05D14FF020442166A266E366DE
:1019100008E0CB4C21604FF02044C4F88820C84C2C
:101920000C34236030BD10210160002141608160D2
:10193000C160016141618161FC21C2691160C269BC
:101940005160C2699160C269D160026A1160026A25
:101950005160026A9160026AD160704799B11028A3
:1019600008D14FF02042126E42F004024FF02043A3
:101970001A661DE0B24A126842F004024FF020439A
:10198000C3F8802014E0102809D14FF02042126ED5
:10199000AA4BDB1E1A404FF020431A6608E0A84A03
:1019A0001268A64BDB1E1A404FF02043C3F880207C
:1019B000704799B1102808D14FF02042126E42F0C2
:1019C00040024FF020431A661DE09D4A126842F023
:1019D00040024FF02043C3F8802014E0102809D1C2
:1019E0004FF02042126E954B3F3B1A404FF0204380
:1019F0001A6608E0924A1268904B3F3B1A404FF03B
:101A00002043C3F88020704701460020102903D1ED
:101A10004FF02042506F02E0894A1432106870473C
:101A2000182087492031086000200906C1F8A40069
:101A30004FF0FC30824928310860091D0860091DFB
:101A400008607047016841F01001426841EA422194
:101A5000826841EA42317A4A20321160C1680968DD
:101A6000C268526841EA0221C268128941EA024111
:101A7000C268127B41EA0261714A28321160016931
:101A800009680269526841EA02210269128941EA41
:101A900002410269127B41EA0261694A2C321160FB
:101AA000416909684269526841EA02214269128922
:101AB00041EA02414269127B41EA02614FF0204251
:101AC000C2F8B01070470021016041608160FC21C4
:101AD000C2681160C2685160C2689160C268D1601A
:101AE0000269116002695160026991600269D16006
:101AF0004269116042695160426991604269D160F6
:101B0000704748B14E492031096841F004014FF057
:101B10002042C2F8A01009E0494920310968474A2B
:101B2000D21E11404FF02042C2F8A010704710B5ED
:101B3000F2B1102807D14FF020435B6E0B434FF0FA
:101B40002044636632E0B0F5807F08D13C4B1B1D1A
:101B50001B680B434FF02044C4F8843026E0384B18
:101B600024331B680B434FF02044C4F8A4301DE01D
:101B7000102807D14FF020435B6E8B434FF0204479
:101B8000636613E0B0F5807F08D12D4B1B1D1B68E9
:101B90008B434FF02044C4F8843007E0284B2433B3
:101BA0001B688B434FF02044C4F8A43010BD10B51F
:101BB000024600200023102A03D14FF02044636E18
:101BC00009E0B2F5807F03D11D4C241D236802E09B
:101BD0001B4C2434236803EA01040CB1012000E00B
:101BE000002010BD102807D14FF02042526E8A43CA
:101BF0004FF020435A6613E0B0F5807F08D1104AB9
:101C0000121D12688A434FF02043C3F8842007E076
:101C10000B4A243212688A434FF02043C3F8A420B1
:101C2000704770B502460020002300240025102ACA
:101C300008D14FF02046736E0DE00000FEFF0F004C
:101C4000800000A0B2F5807F02D1184E336802E018
:101C5000164E2036336803EA010403EAD10514B1B5
:101C60000DB1012000E0002070BD102808D14FF018
:101C70002042526E22EAD1024FF020435A6614E00D
:101C8000B0F5807F08D1094A126822EAD1024FF0EC
:101C90002043C3F8842008E0044A2032126822EA74
:101CA000D1024FF02043C3F8A4207047840000A065
:101CB00010B50121C802FEF7E1FD00214FF40060DC
:101CC000FEF7DCFD10BD0021714A116847F6FF6286
:101CD0009143027D83681A4343681A43C3681A43D9
:101CE00003681A4303691A431143694A1160704734
:101CF00000210175016041608160C1600161704730
:101D00006449086070476249091F096821F00301AE
:101D10005F4A121F11601146096801431160704744
:101D20005B48001F006800F0030070470021584B1B
:101D30001B1D02681A601A1D11686FF30A01D0E9B1
:101D400001231A43C3681A4303691A431143504AD3
:101D50000832116070470021016041608160C160FC
:101D6000016170474A480C300068C0B2704708B53E
:101D7000014600200090464810300844009000982A
:101D8000006808BD0021424B203302681A601B1D09
:101D900042681A601A1D116821F0F701D0E9022388
:101DA0001A4303691A4343691A431143384A2832D4
:101DB000116070474FF0FF31016000214160816088
:101DC000C16001614161704731482C300068704743
:101DD0002F487C30006870472D497C31086070477F
:101DE0002B484430006870472B49086070472A49E7
:101DF000091D086070472849083108607047264966
:101E00000C31086070472549086070472349091D57
:101E10000860704701218143204A083211607047F1
:101E20001E490C31086070471B491439086070471F
:101E300039B1174A383212680243154B38331A60E9
:101E400006E0134A383212688243114B38331A6065
:101E50007047014600200E4A303212680A400AB12B
:101E6000012000E0002070470949343108607047C4
:101E700001460020064A303212680A400AB10120A9
:101E800000E00020704702493431086070470000CC
:101E9000042C0140A0802542A0852542AC8125422A
:101EA00010B50446FE48844208D101210846FEF7D9
:101EB000E5FC00210120FEF7E1FC9DE0B4F1804F3C
:101EC00008D101210846FEF7C8FC00210120FEF7D9
:101ED000C4FC91E0F348844208D101210220FEF7BE
:101EE000BCFC00210220FEF7B8FC85E0EE488442ED
:101EF00008D101210420FEF7B0FC00210420FEF7E8
:101F0000ACFC79E0E948844208D101210820FEF7C1
:101F1000A4FC00210820FEF7A0FC6DE0E448844208
:101F200008D101211020FEF798FC00211020FEF7B7
:101F300094FC61E0DF48844208D101212020FEF7B3
:101F40008CFC00212020FEF788FC55E0DA48844212
:101F500008D101210220FEF791FC00210220FEF7AA
:101F60008DFC49E0D548844209D101210804FEF7DF
:101F700085FC00214FF48030FEF780FC3CE0D04827
:101F8000844209D101214804FEF778FC00214FF476
:101F90000030FEF773FC2FE0CA48844209D10121CA
:101FA0008804FEF76BFC00214FF48020FEF766FCEE
:101FB00022E0C548844208D101214020FEF74DFCB3
:101FC00000214020FEF749FC16E0C048844208D1B9
:101FD00001218020FEF741FC00218020FEF73DFC1E
:101FE0000AE0BB48844207D101218015FEF735FC89
:101FF0000021A015FEF731FC10BD00220288A84B7D
:1020000098420ED0AC4B98420BD0B0F1804F08D024
:10201000A44B984205D0A44B984202D0A34B9842BF
:1020200004D14FF68F731A404B881A43A04B984245
:1020300007D0A04B984204D04FF6FF431A400B89BB
:102040001A4302804B68C3620B880385944B984205
:1020500002D0994B984201D18B7A03860123838267
:1020600070474FF0FF3141600021018001814180C4
:10207000817270470185828270470A46002101887B
:102080004FF68F73194011430180704741627047CA
:10209000C16270470146486A70470146088D704723
:1020A00021B1028842F00202028004E002884FF669
:1020B000FD731A400280704721B1028842F0040289
:1020C000028004E002884FF6FB731A4002807047DA
:1020D00021B1028842F08002028004E002884FF6BB
:1020E0007F731A400280704702884FF6F7731A40D8
:1020F000028002880A430280704702884FF6FF433D
:102100001A40028002880A430280704721B1028887
:1021100042F00102028004E002884FF6FE731A408A
:102120000280704770B5002400220023058C4FF612
:10213000FE7635400584028C8388048B4FF68F75BC
:102140002C40B51E2C400D882C43751E2A408D89CD
:102150002A434D882A43524DA84202D0564DA842E8
:1021600013D14FF6F7752A40CD892A434FF6FB75F8
:102170002A408D882A434FF6FF652B404FF6FF55C6
:102180002B400D8A2B434D8A2B43838004838D681B
:102190004563028470BD70B5002400220023058CC5
:1021A0004FF6EF7635400584028C8388048B48F621
:1021B000FF752C404FF6FF452C400D884FF6FF76FB
:1021C00006EA05252C434FF6DF752A408D8906EA7D
:1021D00005152A434D8806EA05152A43304DA842C5
:1021E00002D0354DA8421DD14FF67F752A40CD89CA
:1021F0004FF6FF7606EA05152A434FF6BF752A40CB
:102200008D8806EA05152A434FF6FF352B404FF21D
:10221000FF752B400D8A06EA85052B434D8A06EA99
:1022200085052B43838004838D688563028470BD9C
:1022300070B5002400220023058C4FF6FF66354060
:102240000584028C8388848B4FF68F752C404FF663
:10225000FC752C400D882C434FF6FF552A408D8984
:102260004FF6FF7606EA05252A434D8806EA05253E
:102270002A430B4DA84202D00F4DA84238D14FF24D
:10228000FF752A40CD894FF6FF7606EA05252A43D9
:102290004FF6FF352A408D8806EA05252A4319E0C6
:1022A000000001400004004000080040000C004015
:1022B00000100040001400400004014000400140B4
:1022C000004401400048014000180040001C00404C
:1022D000002000404EF6FF752B404DF6FF752B4059
:1022E0000D8A06EA05152B434D8A06EA05152B4390
:1022F000838084838D68C563028470BD70B50022BD
:1023000000230024058C4EF6FF7635400584038CAF
:102310008488828B48F6FF752A404FF6FF452A4095
:102320000D884FF6FF7606EA05252A434DF6FF7520
:102330002B408D8906EA05352B434D8806EA053585
:102340002B43FE4DA84202D0FD4DA84208D14BF6CA
:10235000FF752C400D8A4FF6FF7606EA85152C4353
:10236000848082838D680564038470BD00210180B0
:102370004180818081608181C18101824182704779
:1023800070B50346002000241846183001258D4002
:10239000ACB21D8CA5431D8409B108290AD100EBFC
:1023A000610005684FF68F76354005600568154376
:1023B00005600FE00D1FC5F34E052844056848F67B
:1023C000FF763540056005684FF6FF7606EA02267F
:1023D0003543056070BD4163704781637047C163D9
:1023E0007047016470470A460021018B4FF68F73D6
:1023F00019401143018370470A460021018B48F6BA
:10240000FF7319404FF6FF7303EA02231943018358
:1024100070470A460021818B4FF68F731940114394
:10242000818370470A460021818B48F6FF7319406B
:102430004FF6FF7303EA02231943818370470A466C
:102440000021018B4FF6F773194011430183704748
:102450000A460021018B4FF2FF7319404FF6FF73BC
:1024600003EA02231943018370470A460021818B46
:102470004FF6F77319401143818370470A460021D4
:10248000818B4FF2FF7319404FF6FF7303EA02236B
:102490001943818370470A460021018B4FF6FB7375
:1024A00019401143018370470A460021018B4FF602
:1024B000FF3319404FF6FF7303EA022319430183E8
:1024C00070470A460021818B4FF6FB731940114378
:1024D000818370470A460021818B4FF6FF331940F4
:1024E0004FF6FF7303EA02231943818370470A46BC
:1024F0000021018B4FF67F73194011430183704710
:102500000A460021018BC1F30E014FF6FF7303EA67
:1025100002231943018370470A460021818B4FF63D
:102520007F7319401143818370470A460021818BD4
:10253000C1F30E014FF6FF7303EA022319438183AF
:1025400070470A460021018C4FF6FD731940114374
:10255000018470470A460021018C4FF6F773194039
:102560001143018470470A460021018C4FF6DF7346
:1025700019404FF6FF7303EA0213194301847047B1
:102580000A460021018C4FF67F7319404FF6FF7306
:1025900003EA02131943018470470A460021018CA3
:1025A0004FF6FF5319404FF6FF7303EA0223194316
:1025B000018470470A460021018C4FF2FF731940D5
:1025C0004FF6FF7303EA02231943018470470A465A
:1025D0000021018C4DF6FF7319404FF6FF7303EA9B
:1025E000023319430184704730B5002301248C4025
:1025F000A3B2048C9C430484048C02FA01F5ADB2AE
:102600002C43048430BD30B5002304248C40A3B295
:10261000048C9C430484048C02FA01F5ADB22C4373
:10262000048430BD828B4FF2FF331A408283828B49
:102630004FF6FF7303EA01231A4382837047F0B514
:102640000C461546002100220026078C4EF6FF7C22
:1026500007EA0C070784818B028C4FF6FF7707EAA5
:10266000043640F6FF4739404FF6FF7707EA052763
:1026700039434FF6FF7707EA0337394345F6FF77CB
:102680003A4046F480573A4381830284F0BD828BFE
:102690004FF6F3731A408283828B0A43828370471A
:1026A000F0B50C461546002100220026078C4FF697
:1026B000FF6C07EA0C070784818B028C4FF6FF77CB
:1026C00007EA04264FF60C7739404FF6FF7707EA02
:1026D00003172F4339434FF2FF573A4046F48077B0
:1026E0003A4381830284F0BD028B4FF2FF331A40DC
:1026F0000283028B4FF6FF7303EA01231A4302831E
:102700007047F0B50C461546002100220026078CC4
:102710004FF6EF7C07EA0C070784018B028C4FF61B
:10272000FF7707EA041640F6FF4739404FF6FF7778
:1027300007EA033739434FF6FF7703E00000014013
:102740000004014007EA052739434FF65F773A4016
:1027500046F010073A4301830284F0BD028B4FF626
:10276000F3731A400283028B0A4302837047F0B569
:102770000C46154600210022068C4FF6FE773E409F
:102780000684018B028C4FF60C7631407E1C06EAE3
:1027900003162E4331434FF6F576324044F00106DE
:1027A000324301830284F0BD70B505460C46208893
:1027B00050B92389A28861882846FFF7D8FFE188AD
:1027C0002846FFF7CBFF25E0208804280AD123897B
:1027D000A28861882846FFF794FFE1882846FFF722
:1027E00083FF17E0208808280AD12389A2886188FE
:1027F0002846FFF755FFE1882846FFF748FF09E024
:102800002389A28861882846FFF719FFE1882846B6
:10281000FFF708FF70BD0021018041800121818008
:102820000021C180018170472DE9F04105460C4629
:1028300000260127608808B9022600E00026A0884B
:10284000012801D1022700E001272088A0B92389AF
:10285000A28861882846FFF78AFFE1882846FFF7AB
:102860007DFF23893A4631462846FFF74AFFE18833
:102870002846FFF739FF13E02389A288618828469C
:10288000FFF73FFFE1882846FFF72EFF23893A46EE
:1028900031462846FFF76BFFE1882846FFF75EFFC9
:1028A000BDE8F0810146486B70470146886B704770
:1028B0000146C86B70470146086C70470A884B8810
:1028C0001A438B881A43CB881A430B891A434B89C6
:1028D0001A438B891A43A0F84420704700210180D5
:1028E00041808180C180018141818181704731B106
:1028F000B0F8442042F40042A0F8442005E0B0F8CB
:102900004420C2F30E02A0F84420704721B182880F
:1029100042F00402828004E082884FF6FB731A4082
:102920008280704721B1828842F00102828004E0F7
:1029300082884FF6FE731A40828070471AB18389ED
:102940000B43838102E083898B43838170478182BB
:10295000704702460020138A0B400BB1012000E0B3
:1029600000207047CA430282704730B502460020FB
:1029700000230024158A05EA0103958905EA01046C
:1029800013B10CB1012000E0002030BDCA43028227
:10299000704741EA0203A0F8483070471AB18389B2
:1029A0000B43838102E083898B438381704721B18C
:1029B000828842F00802828004E082884FF6F77332
:1029C0001A408280704701894FF6F87211400181E8
:1029D00070470A46002101894FF68F731940114351
:1029E0000181704730B504460D4629462046FFF761
:1029F000F0FF208940F00700208130BD2DE9F04133
:102A000004460D4616461F46602D06D13B46012260
:102A100031462046FFF775FE05E03B460122314670
:102A20002046FFF7A4FE29462046FFF7D2FF208963
:102A300040F007002081BDE8F08130B50C46002150
:102A40000189C9B24FF6FF7505EA032515432543F1
:102A50002943018130BD2DE9F04105460E46174658
:102A60009846002443463A4631462846FFF7E5FF9C
:102A70002C894FF6F870044044F007044FF68F702D
:102A8000044044F070042C81BDE8F081F0B50446A8
:102A90000D4616461F463B46324629462046FFF75E
:102AA000CCFF208940F480402081F0BD82884FF621
:102AB0008F731A40828082880A438280704702891D
:102AC0004FF6F8731A40028102890A430281704767
:102AD00002894FF67F731A40028102890A430281FC
:102AE0007047F0B50C4615461E4600210022002313
:102AF0000189028B038C4FF6F877394021434FF65A
:102B0000FC473A4040F201173A434FF6DD773B402D
:102B10004FF6FF7707EA06172F433B4301810283F5
:102B20000384F0BD21B1828842F08002828004E0FB
:102B300082884FF67F731A4082807047A0F8501049
:102B4000704700000CB50020019000906B480068B1
:102B500040F480306949086000BF6848006800F4AC
:102B6000003000900198401C0190009818B901981D
:102B7000B0F5A06FF1D16148006800F4003010B1E9
:102B80000120009001E0002000900098012838D139
:102B90005A480830006859490831086008460068FA
:102BA00040F4004008600846006840F4A050086007
:102BB0005348091F0860081F006840F08070091F13
:102BC000086000BF4D48006800F000700028F9D090
:102BD00040F203704B49086048480830006820F014
:102BE00003004649083108600846006840F00200CA
:102BF000086000BF41480830006800F00C00082859
:102C0000F8D10CBD10B53D48006840F001003B49CB
:102C100008600020394908310860384800683A499E
:102C20000840364908603948091D0860081F0068D7
:102C300020F48020091F0860002030490C31086012
:102C4000FFF780FF4FF000603149086010BD70B59C
:102C500000200022022300240221284D08352D687F
:102C600005F00C0020B1042806D0082834D107E074
:102C7000284D294E356033E0284D274E35602FE032
:102C80001E4D2D1D2D68C5F380541C4D2D1D2D6826
:102C900005F03F0154B1214DB5FBF1F5174E361D3E
:102CA0003668C6F3881605FB06F209E0194DB5FB38
:102CB000F1F5124E361D3668C6F3881605FB06F28E
:102CC0000E4D2D1D2D68C5F301456D1C6B00B2FB2B
:102CD000F3F5114E356003E00E4D0F4E356000BF29
:102CE00000BF064D08352D68C5F303150C4E705D09
:102CF000094D2D68C540084E356070BD0038024052
:102D0000193C4005003C0240FFFFF6FE1030002455
:102D100008ED00E00024F4001000002040787D0160
:102D20001400002000F0F8FA0EF0BAFCC82000F001
:102D300048FA022006F0BAF908F011F808F0ADFBE5
:102D40005648007809280CD1512007F006FD7F2352
:102D50001A461946532007F03BFD0AF021FE0AF0FF
:102D600032FE4FA00AF081FB012804D14E480078C2
:102D70004E49087017E0212007F04BFA022007F0B7
:102D800048FA4B4A518810884AA20AF003FA0128EF
:102D900009D14548007845490870454A518810884E
:102DA00047A20AF0F7F9002048490870484800781F
:102DB000A0B94848007888B94748007870B94748B2
:102DC000007858B94648007840B94648007828B994
:102DD0004548007810B907F008FC3AE03C48007814
:102DE000012836D03F480078012832D0012007F072
:102DF000B4FC00231A461946722007F0E9FC354856
:102E00000078012803D139A007F055FB21E03248B2
:102E10000078012803D139A007F04DFB19E02F48B5
:102E20000078012803D137A007F045FB11E02C48BA
:102E30000078012806D100231A461946562007F0CB
:102E4000C7FC06E028480078012802D12FA007F02F
:102E500032FB022006F035F92FA014F0A5FA334812
:102E6000006813F008FD0746314913F03EFB0446A5
:102E700013F070FD05462A460B462EA014F094FA76
:102E800038A014F091FA07E00AF0F2FF0AF0CFFD43
:102E900000F01BFE00F072F8F6E7000024000020AE
:102EA0004450542E626D7000AB000020AC00002036
:102EB0004C010020445054312E626D70000000001F
:102EC000445054322E626D7000000000D900002082
:102ED000DD000020DE000020DF000020E0000020F8
:102EE000E1000020E2000020E300002053444341C1
:102EF0005244204552524F52000000005445204E8B
:102F00004700000050574D204E47000046504741B3
:102F1000204552524F5200000D0A4D61696E206CDF
:102F20006F6F702E2E2E0D0A000000006000002032
:102F300000007A440D0A3D3D3D3D3D2053797374B8
:102F4000656D206F6E2074696D6520656C617073AE
:102F500065643A20252E3366287365636F6E642995
:102F60000D0A00000D0A2A232A2353595354454DB4
:102F7000204F4B232A232A0D0A00000010B5464893
:102F8000007801282CD100204349087001204349D2
:102F9000087043480078401C414908700846007892
:102FA0000A281DDB0020087001203E4908703E48B9
:102FB0000078401C3C490870084600780A280FDB5E
:102FC0000020087001203949087039480078401CF9
:102FD0003749087008460078032801DB0020087094
:102FE0002E48007828B300202C4908702C4800781F
:102FF0000A281CD2DFE800F0050A0D121516171872
:10300000191A06F0A0F82B49087011E006F01FF914
:103010000EE006F01FFA2849087009E006F026FBCA
:1030200006E005E004E003E002E001E000E000BFAC
:1030300000BF1C480078D8B100201A4908701A480F
:1030400000780A2812D2DFE800F00508090A0B0C04
:103050000D0E0F1006F0C4F909E008E007E006E0E5
:1030600005E004E003E002E001E000E000BF00BF93
:103070000E48007878B100200C4908700C480078A0
:1030800020B1012803D0022803D101E002E001E0D1
:1030900000E000BF00BF10BD5C0000202800002041
:1030A0002500002029000020260000202A00002002
:1030B00027000020A8000020A9000020704700BFC2
:1030C000FEE700BFFEE700BFFEE700BFFEE7704778
:1030D0007047704710B500F08EF810BD10B500F0C5
:1030E000DCFC10BD10B500F0E4FC10BD10B502F022
:1030F000DDF910BD10B502F0E7F910BD10B502F012
:10310000F7F910BD10B509F0C6FF10BD10B509F0F4
:10311000E7FF10BD70B502E03BA014F045F942484E
:103120000068424AB0FBF2F1B1F1807F01D3012087
:103130001DE021F07F40401E4FF0E022506150170B
:103140000F22002807DA13071D0E394B00F00F0479
:10315000241F1D5503E013071C0E364B1C5400BFE3
:1031600000204FF0E022906107201061002000282D
:10317000D2D12D48016830A014F016F94FF0E020AC
:10318000006920F001004FF0E021086170BD01B539
:103190003049009808604FF0E020006940F00100DD
:1031A0004FF0E021086100BF2A4800680028FBD1E9
:1031B0004FF0E020006920F001004FF0E0210861AD
:1031C00008BD10B50246144605E04FF47A70FFF7CB
:1031D000DEFF601E84B2002CF7D110BD30B504466E
:1031E000254605E04FF47A70FFF7EBFF681E85B2C5
:1031F000002DF7D130BD1748006820B11548006890
:10320000401E1449086070470D0A2052656C6F61BA
:10321000642076616C756520696D706F7373696287
:103220006C6521200D0A00001000002040420F00B4
:1032300018ED00E000E400E00D0A53797374656D49
:10324000436F7265436C6F636B203D202564487A41
:103250000D0A00002C00002008B54FF4C060FEF7F6
:10326000B3F91C208DF8000000208DF80100022029
:103270008DF8020001208DF803006846FEF7A9F9D9
:103280004FF4C060FEF7A0F91D208DF8000000206B
:103290008DF8010001208DF802008DF803006846CA
:1032A000FEF797F94FF4C060FEF78EF91E208DF8F7
:1032B000000000208DF8010001208DF802008DF83B
:1032C00003006846FEF785F94FF4E060FEF77CF9ED
:1032D00025208DF8000000208DF8010002208DF8D7
:1032E000020001208DF803006846FEF772F94FF4E2
:1032F000E060FEF769F934208DF8000000208DF8B9
:10330000010001208DF802008DF803006846FEF7E9
:1033100060F909F0F8FE08BD2DE9F041F0205849A8
:10332000087058480078042805D157485749086064
:1033300057485849086001210846FDF7F3F9012173
:103340000220FDF7EFF901210420FDF7EBF901213F
:103350000820FDF7E7F901211020FDF7E3F901212D
:103360002020FDF7DFF901214020FDF7DBF900F017
:10337000E7F900F039FA48A014F016F802F045F821
:103380004E48006813F077FA07464D4913F0ADF840
:10339000044613F0DFFA05462A460B4649A014F00E
:1033A00003F8FFF7B7FE4FA013F0FEFFFFF754FF3F
:1033B00056A013F0F9FF01F0FFFF5DA013F0F4FF3A
:1033C00004F0BEFB63A013F0EFFF0AF0AFF94FF477
:1033D00080616948FCF7C2FF012806D167A013F09D
:1033E000E3FF01206C49087005E06CA013F0DCFFDE
:1033F00000206949087071A013F0D6FF05F038FE6F
:10340000002005F05EFE012005F05BFE022005F0C5
:1034100058FE73A013F0C8FF05F072FE78A013F0F9
:10342000C3FF05F0EBF805F0E6F97DA013F0BCFF53
:1034300005F01CF985A013F0B7FF05F037FC8FA04D
:1034400013F0B2FF05F00FFB97A013F0ADFF02F0F1
:1034500081F8A0A013F0A8FF06F0E8FD06F085FEB5
:10346000A54813F0A1FF06F0A1F9A44813F09CFFB2
:1034700007F026FDA2A013F097FFBDE8F081000041
:103480004801002024000020004C004034000020AF
:1034900000100140380000200D0A555341525420BD
:1034A000636F6E66696775726174696F6E206973A8
:1034B0002072656164792E0D0A0000006000002012
:1034C00000007A440D0A54696D6572207469636B5B
:1034D0002073746172742E0D0A5B252E3366735D42
:1034E0000D0A00000D0A53797374656D20546963E9
:1034F0006B20636F6E66696775726174696F6E20A9
:1035000069732072656164792E0D0A000D0A4E56AA
:10351000494320636F6E66696775726174696F6E87
:103520002069732072656164792E0D0A0000000025
:103530000D0A54494D45523220636F6E66696775B6
:10354000726174696F6E2069732072656164792E8F
:103550000D0A00000D0A4144433320636F6E666913
:103560006775726174696F6E20697320726561643A
:10357000792E0D0A00000000000402400D0A2A23E3
:103580002A234155544F4C494E455F454E41424CCC
:1035900045232A232A0D0A00570000200D0A2A235A
:1035A0002A234155544F4C494E455F4449534142AB
:1035B0004C45232A232A0D0A000000000D0A544519
:1035C000535420636F6E66696775726174696F6EBC
:1035D0002069732072656164792E0D0A0000000075
:1035E0000D0A4C454420636F6E666967757261749D
:1035F000696F6E2069732072656164792E0D0A000F
:103600000D0A4B455920636F6E6669677572617468
:10361000696F6E2069732072656164792E0D0A00EE
:103620000D0A506F77657220656E61626C6520636C
:103630006F6E66696775726174696F6E2069732059
:1036400072656164792E0D0A000000000D0A49328E
:103650004320666F72205450533635333132206325
:103660006F6E66696775726174696F6E2069732029
:1036700072656164792E0D0A000000000D0A49325E
:103680004320666F7220454550524F4D20636F6E48
:1036900066696775726174696F6E206973207265FF
:1036A0006164792E0D0A00000D0A49324320666FCD
:1036B000722041443739393420636F6E666967750B
:1036C000726174696F6E2069732072656164792E0E
:1036D0000D0A00000D0A41646D65737920636F6EF9
:1036E00066696775726174696F6E206973207265AF
:1036F0006164792E0D0A0000BC9E0108789E0108C5
:103700000D0A496E7465726661636520626574773F
:1037100065656E2053544D33324632787820616EA1
:1037200064204C434420636F6E66696775726174F0
:10373000696F6E2069732072656164792E0D0A00CD
:1037400000B587B001211020FDF730F807220921CC
:10375000FB48FCF72CFE07220A21F948FCF727FE5C
:103760004FF40070059002208DF8180000208DF8AD
:103770001A0001208DF81B0002208DF8190005A900
:10378000EF48FCF789FD4FF48060059002208DF82A
:10379000180001208DF81B0005A9E948FCF77CFD05
:1037A0004FF4E13001900020ADF80800ADF80A00B8
:1037B000ADF80C00ADF810000C20ADF80E0001A91A
:1037C000E048FDF73BF940F22551DE48FDF7E6FA07
:1037D000012240F22551DB48FDF76EFA0121D9485C
:1037E000FDF7B4F907B000BD00B587B00121C804EA
:1037F000FCF7CBFF08220021D148FCF7D8FD0822B6
:103800000121CF48FCF7D3FD0120059002208DF85F
:10381000180000208DF81A0001208DF81B000220EE
:103820008DF8190005A9C648FCF736FD0220059061
:103830008DF8180001208DF81B0005A9C048FCF781
:103840002BFD4FF4E13001900020ADF80800ADF8F9
:103850000A00ADF80C00ADF810000C20ADF80E0019
:1038600001A9B948FDF7EAF840F22551B648FDF73D
:1038700095FA012240F22551B348FDF71DFA0121C6
:10388000B148FDF763F907B000BD70B504460D46B9
:10389000E1B2AE480068FDF784F900BF8021AB4873
:1038A0000068FDF72EFA0028F8D0204670BD10B54C
:1038B00040F22551A5480068FDF723FA012871D18F
:1038C000A2480068FDF771F9A1490870A148007885
:1038D000002861D1A0480078012818D10846007856
:1038E0009E499F4A128821F8120008469C4909887F
:1038F00030F811004FF6FF7101EA00209749984A0D
:10390000128821F8120000209349087010E09449B1
:103910000A880988491C924B1980904901EB4200A2
:1039200001888B4A12781143018001208A4908706E
:103930008B480088401E894931F8100041F2482127
:1039400088420ED186480088801E844931F81000D4
:10395000B0F5706F05D101207E49087000208049C4
:1039600008807F480088401E7C4931F810001228EA
:1039700012D17748007848280ED101207549087087
:10398000002077490880012073490870002005F065
:103990008DFB012005F08AFB40F225516B48006841
:1039A000FDF7FCF910BD10B540F225516D480068D7
:1039B000FDF7A7F9012825D16A480068FDF7F5F859
:1039C000C1B2694802880088401C674B188067486C
:1039D000815418460088401E6449085C0A280BD1AF
:1039E00018460088801E085C0D2805D10020194665
:1039F000088001205E49087040F22551594800684E
:103A0000FDF7CCF910BD10B586B0002440F2255169
:103A10004E480068FDF775F9012836D14B4800681B
:103A2000FDF7C3F80A280FD100204D490880012076
:103A30004849087000BF04E0002001A90855601C37
:103A4000C4B2142CF8DB20E04548008840B90024BB
:103A500004E0002047490855601CC4B2142CF8DB70
:103A60003A480068FDF7A1F8C1B201A83C4A1288A3
:103A700081543B490988415C3E48394A1288815447
:103A800037480088401C3649088040F225512F48AD
:103A90000068FDF783F906B010BD10B52B4800682B
:103AA0002849884202D1FFF7AEFF01E0FFF77BFF14
:103AB00010BD10B52B4800682249884202D1FFF79B
:103AC000F6FE01E0FFF76FFF10BD00B597B02A4882
:103AD0000078012819D12948037829480278294813
:103AE0000178002006F074FE27480088FFF769FB84
:103AF000264803782648027826480178002006F0F8
:103B000067FE21480088FFF75CFB12480078012817
:103B100041F04582114801884AF68422881A914270
:103B20007CD058DC4AF61022A1EB0200914276D0FC
:103B30003DDC6FF42A400844092881F02B822BE0F9
:103B40000000024000100140004C00403400002002
:103B5000300000205600002055000020F40A00200C
:103B60003C0000203800002068000020F40E0020F7
:103B70006A000020E00A0020480000204B000020DE
:103B80004A00002049000020500000204E00002084
:103B90004D0000204C000020DFE810F04B005000EA
:103BA000A4028303A603DD0308047D053204322842
:103BB0007DD009DC11287BD012287AD0302879D02A
:103BC000312841F0E781EFE3712874D0722873D077
:103BD0007328F6D1E9E31C2800F037870DDCA0F14B
:103BE0000C000828A9D2DFE810F082069806AE067D
:103BF000C506DB06E90600070607212801F06981F2
:103C00000EDC1D2801F051801E2801F0C6801F28FF
:103C100001F0C6802028D4D101F033B9EFE355E29A
:103C2000372873D05C2800F0E9865D28C9D101F0FF
:103C300072B9FE4805F008FF01F0ADB9FB48801EDF
:103C400040886B287ED1F948801EC08808287AD227
:103C5000DFE800F0041E425D7D96B2CBF448008898
:103C6000059000EBD07040108F3880B216901698F7
:103C7000C0B20590169800120490EC48801E00799E
:103C8000039001466B20DDE9042306F0A1FDC9E0A5
:103C9000E7480088059000EBD07040108F3880B264
:103CA00016901698C0B205908021169805E0BBE3E7
:103CB000BBE3BBE3BBE3BBE3BBE301EB2020C0B250
:103CC0000490DA48801E0079039001466B20DDE9FC
:103CD000042306F07DFDA5E0D5480088059000EBA3
:103CE000D07040108F3080B216901698C0B20590F8
:103CF000169800120490CD48801E0079039001466A
:103D00006B20DDE9042306F063FD8BE092E3C848F5
:103D10000088059000EBD07040108F3080B2169074
:103D20001698C0B205908021169801EB2020C0B2F1
:103D30000490BE48801E0079039001466B20DDE9A7
:103D4000042301E06FE06CE006F042FD6AE0B84851
:103D50000088062190FBF1F08F3080B21690169803
:103D6000C0B20590169800120490B048801E0079E9
:103D7000039001466B20DDE9042306F029FD51E0A4
:103D8000AB480088062190FBF1F08F3080B216908E
:103D90001698C0B205908021169801EB2020C0B281
:103DA0000490A248801E0079039001466B20DDE953
:103DB000042306F00DFD35E09D480088062190FBA8
:103DC000F1F08F3880B216901698C0B20590169810
:103DD000001204909548801E0079039001466B20E4
:103DE000DDE9042306F0F4FC1CE09148008806217C
:103DF00090FBF1F08F3880B216901698C0B2059003
:103E00008021169801EB2020C0B204908748801EC4
:103E10000079039001466B20DDE9042306F0D8FC0D
:103E200000E000BF1CE18148801E40886C2878D1EA
:103E30007E48801EC088082874D2DFE800F0041E87
:103E40003B55748DA9C27B480088059000EBD0706B
:103E500040108F3880B216901698C0B20590169810
:103E6000001204907148801E0079039001466C2076
:103E7000DDE9042306F0ACFCC0E06E480088059044
:103E800000EBD07040108F3880B216901698C0B2F8
:103E900005908021169801EB2020C0B20490634861
:103EA000801E0079039001466C20DDE9042306F0B2
:103EB0008FFCA3E05F480088059000EBD0704010B5
:103EC0008F3080B216901698C0B2059016980012E6
:103ED00004905648801E0079039001466C20DDE96D
:103EE000042306F075FC89E052480088059000EB39
:103EF000D07040108F3080B216901698C0B20590E6
:103F00008021169801EB2020C0B204904748801E03
:103F10000079039001466C20DDE9042306F058FC8B
:103F20006CE06CE069E043480088062190FBF1F00A
:103F30008F3080B216901698C0B205901698001275
:103F400004903A48801E0079039001466C20DDE918
:103F5000042306F03DFC51E036480088062190FB22
:103F6000F1F08F3080B216901698C0B20590802183
:103F7000169801EB2020C0B204902C48801E0079D6
:103F8000039001466C20DDE9042306F021FC35E0B6
:103F900028480088062190FBF1F08F3880B21690F7
:103FA0001698C0B205901698001204901F48801E03
:103FB0000079039001466C20DDE9042306F008FC3B
:103FC0001CE01C480088062190FBF1F08F3880B27D
:103FD00016901698C0B205908021169801EB20200B
:103FE000C0B204901148801E0079039001466C20F5
:103FF000DDE9042306F0ECFB00E000BF30E00E48F2
:10400000007801282CD10948801E408830BB074821
:10401000801E80887F2812D10448801EC0887F2897
:104020000DD10248801E00897F2807E0F60A002093
:10403000B8000020B6000020570000200BD0FE483A
:10404000808840280AD1FC48C088402806D1FA4818
:104050000089402802D10DF017FD01E00DF007FDA9
:10406000F548007A0590F44880790490F248007988
:104070000390F1488078029003A90EC906F0A8FBCE
:104080001420FFF79EF8EDA013F08EF9EF480078AA
:1040900001281AD1E8484088B8B9E7488088FF2845
:1040A00007D1E548C088FF2803D1E3480089FF28ED
:1040B00009D0E1488088FF2807D1DF48C08820B9AF
:1040C000DD48008908B909F009FDB5E5DA488078CE
:1040D000059006F0E2FD1420FFF773F8D7A013F067
:1040E00063F9A9E51420FFF76CF8D9A0DBA3DEA2E1
:1040F000E2A10090E3A013F057F90021E648CDE9D2
:104100000210E649E648E74AE74BCDE90010E7A090
:1041100013F04AF9E949EA48CDE90210E949EA48C9
:10412000CA10EA4BCDE90010E9A013F03DF9EC48C4
:10413000EC49CDE90201EC49EC48ED4AED4BCDE903
:104140000010E3A013F030F9EB48EC49CDE904018D
:10415000EB49EC48CDE90210EB49EC488A08EC4BFE
:10416000CDE90010EBA013F01FF90021EF48CDE9D5
:104170000210EF480A460346CDE90010CBA013F029
:1041800013F941F6D27041F6C87341F6BE720021B0
:104190000090E8A013F008F90020EA49EAA3ECA295
:1041A000CDE90001ECA1EEA013F0FEF80122002100
:1041B000EFA013F0F9F80021EF48CDE9041008460C
:1041C000ED49CDE902010021EB480A460B46CDE955
:1041D0000010D0A013F0E8F8B048E8490022E84BFE
:1041E000CDE90001E7A013F0DFF80021E248CDE9B6
:1041F0000210E748E749E84AE84BCDE90001B4A0DE
:1042000013F0D2F80021DC48CDE90210E448E5497A
:10421000E54AE64BCDE90001ADA013F0C5F8002159
:10422000D548CDE90210E249E248E34AE34BCDE943
:104230000010A7A013F0B8F8E1A1E9A013F0B4F8BA
:10424000E949E7A013F0B0F883A1E5A013F0ACF8BA
:1042500000200090024603460190E4A013F0A4F869
:10426000002100910A460B46E0A0019113F09CF852
:10427000002100910A460B46DCA0019113F094F84E
:1042800000200090024603460190D8A013F08CF85D
:1042900000221346D8A013F087F81420FEF791FFF0
:1042A000CAE4022004F002FF0DF00AFD01280CD13F
:1042B000D4A013F079F8012004F0F8FE002004F0F7
:1042C00000FF022004F0FDFE0BE0D3A013F06CF819
:1042D000002004F0EBFE022004F0F3FE012004F0C5
:1042E000F0FE04F09DFFA7E4D048007802281DDB13
:1042F000CE48007803280FD100231A4619465520CE
:1043000006F066FA002004F0D1FE022004F0D9FE87
:10431000012004F0D6FE1BE0012004F0C7FE0220BD
:1043200004F0CFFE002004F0CCFE11E0C0A013F09A
:104330003BF800231A461946552006F049FA00209A
:1043400004F0B4FE022004F0BCFE012004F0B9FE2B
:1043500004F066FF70E4B9A013F026F806F0CAFD79
:104360000A20FEF72EFFBBA013F01EF805F07BFA23
:104370006420FEF726FFBC4805F066FB1420FEF71C
:1043800020FFAEA013F010F806F0B4FD3220FEF7C7
:1043900018FFB64805F058FB3220FEF712FF40F632
:1043A000FF7006F01AFF47E413E26CE2A3A012F0DC
:1043B000FBFF06F09FFD0A20FEF703FFA5A012F009
:1043C000F3FF05F050FA6420FEF7FBFEA64805F067
:1043D0003BFB1420FEF7F5FE98A012F0E5FF06F077
:1043E00089FD3220FEF7EDFEA14805F02DFB3220BD
:1043F000FEF7E7FE40F6FF7006F0EFFE1CE464E215
:104400000D4880789B4908700B4800799A490870DC
:1044100009488079994908700748008998490880B7
:1044200098A012F0C1FF07E4FCE15AE163E178E1F2
:1044300004E20FE22AE10000F40A00202A232A23E2
:1044400041434B232A232A0D0A0000005700002075
:104450004F54505F56315030000000004E543336F8
:104460003637324100000000544C3036354656583D
:104470004630312D30305F47360000004E4F5641F8
:1044800054454B002A232A2325732425732425739E
:10449000242573240D0A0000000004409A9999997C
:1044A00099990140676666666666FE3F252E32660C
:1044B00024252E326624252E3266240014AE47E1D0
:1044C0007A14D63FE17A14AE47E1D23F285CCF3F61
:1044D000252E336624252E336624252E33662400AC
:1044E0005C8FC2F5285CD73F295C8FC2F528D43F8A
:1044F000F6285C8FC2F5D03F7B14AE47E17AD43FFB
:1045000048E17A14AE47D93FCDCCCCCCCCCCD43F0B
:104510003333D33F252E336624252E336624252EB0
:10452000336624252E3366240000000000C0774047
:104530000000144025642425642425642425642473
:104540000D0A0000000040C030313045000000007E
:1045500030313134000000003031303800000000CC
:10456000257324257324257324252E326624000008
:1045700025642425642400000000E03F9999E93F68
:1045800000407F40252E326624252E33662400000D
:104590001904560E2DB2D53F8195438B6CE7E33F4E
:1045A000B0726891ED7CE33FD578E9263108D43FBD
:1045B000D9CEF753E3A5AB3FDF4F8D976E12C33FC4
:1045C00036342039302031323720313238203136FC
:1045D000302031383020323030203232300000008C
:1045E0002573240D0A000000449F0108252E336620
:1045F00024252E3366240000252E3266232A232A02
:104600000D0A00002A232A234F5450204F4B232AFF
:10461000232A0D0A000000002A232A234F54502089
:104620004E47232A232A0D0A000000008E0A00208C
:10463000436865636B204E470D0A00000D0A447203
:10464000697665722049435F52657365742E2E2E1C
:104650000D0A00000D0A4D4950495F52657365749B
:104660002E2E2E0D0A00000056010020D20100203F
:10467000C2090020520000205300002054000020F6
:10468000900A002041434B0D0A000000AFF20C00DD
:1046900012F08AFE19E5FE484088FE490880FC4871
:1046A00080884880FA4880790871F948007A487112
:1046B000F748807A8871F648007BC871F448807B9F
:1046C0000872F348007C487208460168039141680B
:1046D00004910089ADF81400059A039805F005FED1
:1046E000F3E40DF0B9FAEC490870E94880780590D8
:1046F00006F033F8E9E4002016900BE0E449169840
:10470000401C11F8101006AA169811541698401C57
:1047100080B2169016980E28F0DB06A805F0CBFEA6
:10472000D3E4022004F0C2FC0DF096FADA490870D6
:104730000846007802281CDB0221D8A012F034FEC3
:10474000DCA012F031FE0520FEF73BFDDCA012F0EC
:104750002BFE002006F001F800231A4619465520CA
:1047600006F036F8002004F0A1FC022004F0A9FCB9
:104770002EE00DF0A5FA012815D10520FEF721FD48
:10478000D4A012F011FE082005F0E7FF80231A469E
:104790001946162006F01CF8012004F087FC0220C0
:1047A00004F08FFC14E00520FEF70BFDC4A012F00E
:1047B000FBFD002005F0D1FF00231A4619465520C5
:1047C00006F006F8002004F071FC022004F079FCE9
:1047D000E1E3C548006812F04EF8C449059011F0B5
:1047E00084FEC34908600AF01CFB10B1C14812F0F6
:1047F000DBFDBD48006812F03EF8BC49019011F0A5
:1048000074FE0290BA480168029811F036FE0390D7
:1048100012F0A0F802460B46CDE90401B6A012F052
:10482000C3FDB8E306F0A3FB06F080FC06F09BFC9A
:1048300004F00EF8BEA012F0B7FD00BF9448408807
:1048400005900DF02EF90520FEF7BBFCBEA012F07E
:10485000ABFDA0E3C148008840F08000BF4908805C
:1048600008460188BEA012F09FFD89480079059096
:104870008748807806AB04900146BE480078059AC8
:1048800005F020FA87E382488078014605900320EE
:1048900005F066F87E48007901460590032005F092
:1048A0008AF87B48807901460590032005F083F85B
:1048B000B721B048007805F0AAF8A8490880084652
:1048C0000188ADA012F070FD65E371488078014663
:1048D0000490A848007805F09AF805906C48408844
:1048E00004900146A9A0059A12F05EFD53E36848C2
:1048F0004088012806D100BF1021B248FBF74AFDCD
:1049000000BF09E06248408830B900BF1021AD48BF
:10491000FBF73EFD00BF00BF3DE35D484088012836
:1049200006D100BF0821A748FBF734FD00BF09E00E
:104930005748408830B900BF0821A248FBF728FD3E
:1049400000BF00BF27E352484088012806D100BFBE
:1049500041029D48FBF71EFD00BF0AE04C4840881D
:1049600038B900BF4FF400719748FBF711FD00BF45
:1049700000BF10E346484088012806D100BF8021CF
:104980009048FBF707FD00BF09E04148408830B977
:1049900000BF80218B48FBF7FBFC00BF00BFFAE2A1
:1049A0003B484088012802D100BF00BF05E03848DD
:1049B000408810B900BF00BF00BFECE23448408817
:1049C000012806D100BF81038048FBF7E3FC00BF4C
:1049D0000AE02F48408838B900BF4FF480417B4837
:1049E000FBF7D6FC00BF00BFD5E229484088059000
:1049F00006F0F3FBCFE206F07DFACCE224488178A2
:104A0000734801702248808800127249087020485B
:104A10000079714908701E48C08800126F490870FB
:104A20001B4880796E4908701948008900126D4949
:104A300008701748007A6C490870154840896B491E
:104A400008806BA012F0B0FCA5E22748006811F0C6
:104A500012FF2649059011F048FD25490860002005
:104A60006A4908706A4908706A4908706A4908709A
:104A70006A49087000216A480170012004F016FBA1
:104A8000002004F01EFB022004F01BFBCAE0000023
:104A9000F40A00204C0100208E0A00204F545020C0
:104AA00074696D6573206973206F76657220256463
:104AB000210D0A004F5450204E470D0A00000000FF
:104AC0000D0A2A232A234F54503A4E47232A232AD9
:104AD0000D0A00000D0A2A232A234F54503A4F4B47
:104AE000232A232A0D0A00006000002000007A44D7
:104AF00044000020009F01080D0A3D3D3D3D3D2042
:104B0000234141343123204175746F56636F6D2802
:104B1000292074696D6520656C61707365643A2045
:104B2000252E3366287365636F6E64290D0A0000B5
:104B30000D0A2A232A23504F5745523A4F464623FF
:104B40002A232A0D0A0000000D0A2A232A2356438D
:104B50004F4D3A4F4B232A232A0D0A00B400002060
:104B60000D0A5353445F4237203D203078253034BE
:104B7000780D0A00920A00205353445F4237203DCB
:104B8000203078253034580D0A0000005468652024
:104B9000706172616D65746572206F662053534455
:104BA00032383238207265676973746572203078E4
:104BB00025303258206973203078253034580D0A5A
:104BC00000000000000C02400018024000040240F7
:104BD00048000020490000204A0000204B0000202F
:104BE0004C0000204D0000204E000020500000200E
:104BF0000D0A20696E74657276616C206469737049
:104C00006C61792E2E2E0D0A00000000DD000020C0
:104C1000DE000020DF000020E0000020E100002096
:104C2000E200002008F082FD06F037FC002005F0CD
:104C300094FDF848007870B9F748007804280AD045
:104C4000F5480078012806D000231A46194654205A
:104C500005F0BEFD05E0FF231A461946002005F0C9
:104C6000B7FDEEA012F0A0FBF248006811F003FEC1
:104C7000F149019011F039FC0290F0480168029866
:104C800011F0FBFB039011F065FE02460B46CDE9E7
:104C90000401EBA012F088FB6420FEF792FA08F002
:104CA0001DFF012004F00DFA75E1E248006811F0E3
:104CB000E2FDE149059011F018FCE0490860002090
:104CC00004F0F4F9D448007801282CD006F0BCFA9E
:104CD000FF231A461946002005F07AFD6420FEF7EE
:104CE00070FA08F000FFE448006811F033FEE34A70
:104CF000E34BCDE9040111F041FE0BD3DE4800681F
:104D000011F028FE4FF03332DE4BCDE9040111F0F3
:104D10004DFE03D2DCA012F047FB02E0E3A012F04C
:104D200043FB09F011F8002006F057FA06F01FF9CE
:104D300006F0FCF906F0A3F906F015FA08F0CFFE2C
:104D400003F086FD08F0B5FD0520FEF73AFA0220D3
:104D500004F0B7F9002004F0B4F9012004F0B1F92F
:104D6000AFF2342012F020FBB248006811F083FD4E
:104D7000B149019011F0B9FB0290B0480168029866
:104D800011F07BFB039011F0E5FD02460B46CDE9E7
:104D90000401CCA012F008FBFDE005F085FCFAE070
:104DA000A448006811F067FDA349059011F09DFB30
:104DB000A2490860022004F079F9F020CF49087078
:104DC000CF48007878B9012005F0C7FCCDA005F0E8
:104DD00072FB00231A461946722005F0F9FCCCA09C
:104DE00012F0E2FAD7E0FF231A461946002005F038
:104DF000EFFC4FF47A70FEF7E4F900F09CFED04926
:104E0000D048006811F006FE03D2CFA012F0CCFA11
:104E1000C1E00AF0E6FD60B9002005F09EFC002329
:104E20001A461946552005F0D3FC022004F049F932
:104E30000BE0082005F091FC80231A461946162045
:104E400005F0C6FC022004F03CF9C4A012F0ACFA54
:104E50007848006811F00FFD7749019011F045FB8B
:104E6000029076480168029811F007FB039011F058
:104E700071FD02460B46CDE90401BCA012F094FA84
:104E800089E06C48006811F0F6FC6B49059011F060
:104E90002CFB6A49086008F023FE002005F05DFC49
:104EA0006448006811F0E7FC6349019011F01DFBB4
:104EB000029062480168029811F0DFFA039011F045
:104EC00049FD02460B46CDE90401B4A012F06CFA8C
:104ED00061E0C148807800F0010088B1FF231A46E4
:104EE0001946002005F074FC06F0AEF96420FEF7C8
:104EF00068F9AFF6B82012F057FA08F0EFFD09E0B4
:104F0000FF231A461946002005F062FC40F6FF70A8
:104F100006F063F93FE0B048408801460590AFA035
:104F200012F042FAAC48807800F0010078B1B7A0E6
:104F300012F03AFA0120BC490870002005F00DFC7F
:104F4000FF231A461946002005F042FC05E0B7A0F1
:104F500012F02AFA0020B44908709F48807800F0C7
:104F6000020048B1B9A012F01FFA0120BF49087031
:104F70005520BF49087009E0BEA012F015FA0020C4
:104F8000BA490870C3480078B9490870C2A012F045
:104F90000BFA00E000BF00BF0020C849087017B03E
:104FA00000BDF0B503460D461646002729460A2ED9
:104FB00003D0002008702846F0BD33B9302001F836
:104FC000010B002008702846F6E7002B03DA2D209D
:104FD00001F8010B5B4242F210720DE093FBF2F418
:104FE00004B937B104F1300001F8010B04FB1233AE
:104FF00001270A2092FBF0F2002AEFDC0020087063
:105000002846D9E70FB470B586B006460CA80190C3
:10501000CAE100008E0A0020240000200D0A2A2385
:105020002A23504F5745523A4F4E232A232A0D0A1E
:10503000000000006000002000007A4444000020CE
:105040000D0A3D3D3D3D3D2023414141302320702F
:105050006F776572206F6E2074696D6520656C6175
:10506000707365643A20252E3366287365636F6E0E
:1050700064290D0A00000000FC0000209A9999990B
:105080009999F93F333303400D0A2A232A234355C4
:105090005252454E545F4E473A4C45444120444994
:1050A0004D21232A232A0D0A000000000D0A2A237D
:1050B0002A2343555252454E545F4F4B232A232AED
:1050C0000D0A00000D0A3D3D3D3D3D20234141417B
:1050D000312320706F776572206F66662074696D6A
:1050E0006520656C61707365643A20252E336628EF
:1050F0007365636F6E64290D0A000000480100208B
:105100006B0000204D5345204552524F5200000085
:105110004D5345206572726F722120506C6561732A
:105120006520636865636B20746865204D53452076
:10513000636F6E6E656374696F6E210D0A00000007
:105140000000C842780000200D0A2A232A234C4977
:10515000543A4E47232A232A0D0A00000D0A2A2317
:105160002A23454E44232A232A0D0A000D0A3D3DD9
:105170003D3D3D20234141413323206F7470207415
:10518000696D6520656C61707365643A20252E3306
:1051900066287365636F6E64290D0A000D0A3D3D34
:1051A0003D3D3D20234141413423206375727265AA
:1051B0006E7420636865636B2074696D6520656C2F
:1051C00061707365643A20252E3366287365636FBA
:1051D0006E64290D0A000000F40A00200D0A3D3D0E
:1051E0003D3D70726F6A65637420636F6E666967B8
:1051F00075726174696F6E206F7074696F6E20696B
:1052000073203A305825580D0A0000000D0A2A2351
:105210002A234155544F4C494E455F454E41424C1F
:1052200045232A232A0D0A00570000200D0A2A23AD
:105230002A234155544F4C494E455F4449534142FE
:105240004C45232A232A0D0A000000000D0A2A23B8
:105250002A2347414D4D414558504552545F454ED4
:1052600041424C45232A232A0D0A00005800002001
:10527000AC0000200D0A2A232A2347414D4D414509
:1052800058504552545F44495341424C45232A23C8
:105290002A0D0A00AB0000200D0A2A232A23504FB2
:1052A0005745525F5355535441494E5F444953410A
:1052B000424C4521232A232A0D0A000056000020D3
:1052C0000B9800785C281CD10B98401C0B90007840
:1052D0006E2809D072280FD10D213046FBF761FCF2
:1052E0000B98401C0B900BE00A213046FBF759FC51
:1052F0000B98401C0B9003E00B98401C0B9000BFD8
:105300004BE00B980078252840D10B98401C0B905F
:105310000078642818D0732833D1019810C8019000
:105320000BE021783046FBF73CFC00BF40213046C3
:10533000FBF7E7FC0028F9D0641C20780028F0D1A6
:105340000B98401C0B9020E0019820C801900A2285
:1053500002A92846FFF725FE02AC0BE02178304673
:10536000FBF71FFC00BF40213046FBF7CAFC0028BA
:10537000F9D0641C20780028F0D10B98401C0B90C9
:1053800003E00B98401C0B9000BF06E00B9810F850
:10539000011B0B903046FBF704FC00BF4021304658
:1053A000FBF7AFFC0028F9D00B980078002887D1D4
:1053B00006B070BC5DF814FB0EB501210846FBF782
:1053C000E4F94FF08040FCF76BFD3B20ADF80000A6
:1053D0000020ADF80800092001900020ADF802007F
:1053E0008DF80A0069464FF08040FCF706FE012167
:1053F0008807FDF7B7FA012211469007FDF79EFADC
:1054000001218807FCF782FE0EBD0EB501210220A6
:10541000FBF7BBF94148FCF743FD3B20ADF800002A
:105420000020ADF8080040F2E73001900020ADF810
:1054300002008DF80A0069463848FCF7DEFD0121BC
:105440003648FDF78FFA012211463448FDF776FA07
:1054500001213248FCF75AFE0EBD0EB50121042091
:10546000FBF793F92E48FCF71BFD4EF65F20ADF8D5
:1054700000000020ADF8080040F2E7300190002065
:10548000ADF802008DF80A0069462548FCF7B5FD25
:1054900001212348FDF766FA012211462048FDF755
:1054A0004DFA01211E48FCF731FE0EBD10B5012159
:1054B0008807FDF74EFA012805D105F0CAFE012143
:1054C0008807FDF74FFA10BD10B501211348FDF70D
:1054D00040FA01280BD113480068401C11490860AC
:1054E00001201149087001210C48FDF73BFA10BD5D
:1054F00010B501210A48FDF72CFA01280DD10B48FF
:105500000088401C094908800846018808A011F05D
:105510004BFF01210248FDF725FA10BD00040040B1
:1055200000080040600000205C00002064000020B3
:105530000D0A54696D6572345F5365635F436F751F
:105540006E746572203D202564287365636F6E64F8
:10555000290D0A0070B50325002424E00020F54938
:105560000880F54908700024F4A1F9480068FFF7A5
:1055700049FD04E00120FDF724FE601C84B2EE48E2
:10558000007808B9642CF5DBF24800783E2807D192
:10559000F04840783E2803D10120EF49087007E029
:1055A0000020ED490870281EA5F10101CDB2D5D12A
:1055B00000BFE948007800B970BD24E00020DD4953
:1055C0000880DD4908700024E4A1E1480068FFF785
:1055D00019FD04E00120FDF7F4FD601C84B2D648FB
:1055E000007808B9642CF5DBDA4800783E2807D14A
:1055F000D84840783E2803D10120D749087007E0F9
:105600000020D5490870281EA5F10101CDB2D5D1E1
:1056100000BFD148007800B9CEE7032524E0002080
:10562000C4490880C44908700024D3A1C848006850
:10563000FFF7E8FC04E00120FDF7C3FD601C84B225
:10564000BD48007808B9642CF5DBC24800783E28D4
:1056500007D1C04840783E2803D10120BE490870D8
:1056600007E00020BC490870281EA5F10101CDB259
:10567000D5D100BFB848007800B99DE7032524E0E4
:105680000020AC490880AC4908700024BFA1B04894
:105690000068FFF7B7FC04E00120FDF792FD601CF5
:1056A00084B2A548007808B9642CF5DBA9480078D5
:1056B0003E2807D1A74840783E2803D10120A649BB
:1056C000087007E00020A4490870281EA5F1010118
:1056D000CDB2D5D100BFA048007800B96CE7032552
:1056E00024E0002093490880934908700024ADA16C
:1056F00097480068FFF786FC04E00120FDF761FD94
:10570000601C84B28C48007808B9642CF5DB9148A1
:1057100000783E2807D18F4840783E2803D10120E9
:105720008D49087007E000208B490870281EA5F1FC
:105730000101CDB2D5D100BF8748007800B93BE761
:10574000032524E000207B4908807B490870002461
:1057500098A17F480068FFF755FC04E00120FDF7A1
:1057600030FD601C84B27448007808B9642CF5DB05
:10577000784800783E2807D1764840783E2803D103
:1057800001207549087007E0002073490870281E41
:10579000A5F10101CDB2D5D100BF00BF0CE72DE9C5
:1057A000F041032523E00020624908806249087027
:1057B000002485A166480068FFF724FC04E001206E
:1057C000FDF7FFFC601C84B25B48007810B9B4F5AB
:1057D0007A7FF4DB5F4800783E2803D15D4840784B
:1057E0003E2802D0B4F57A7F00DB00E004E0281EFA
:1057F000A5F10101CDB2D6D100BF564812F0C2FDCD
:10580000064611F0EBF8754908600846006811F08B
:10581000A1F8064632460B4671A011F0C5FD294697
:1058200074A011F0C1FDBDE8F0812DE9F84F44F2FC
:10583000500013F003FA05464FF000091DB972A09D
:1058400011F0B2FD66E000203A4908803A4908703C
:10585000002403234FF4006272A13D480068FFF763
:10586000D1FB04E00120FDF7ACFC601C84B232489F
:10587000007810B9B4F5FA6FF4DB6FA1354810F079
:105880007BFD8146484612F07DFD074611F0A6F8E3
:10589000064669A1002010F06FFD814666A1002038
:1058A00010F06AFD814664A1002010F065FD81467C
:1058B00000240DE0484612F065FD2246631C9CB2B0
:1058C00005EBC20203C25CA1002010F055FD814629
:1058D000B9F1000FEED1304611F03CF807464FF415
:1058E00000603A460B460090284600F007FE8246CC
:1058F00011F074F8394908600846006811F02AF878
:1059000007463A460B464DA011F04EFD284612F0D0
:105910004DFF0025BDE8F88F70B503250024FF2357
:105920001A461946002004F053FF4FF4FA70FDF7B1
:1059300048FCB3E0680000206A0000203A53454E5E
:1059400053653A494E54203230303030300A00002E
:1059500038000020F40E00206B0000203A53454E22
:1059600053653A4155544F5041524D532036302CD7
:10597000312C31350A0000003A53454E53653A4107
:1059800055544F52414E474520310A003A53454E37
:1059900053653A4D4158494E5420353030303030FF
:1059A0000A0000003A73656E733A617665722031C1
:1059B0000A0000003A73656E733A7362772075735C
:1059C0006572320A000000003A6D6561733A466CF8
:1059D00069636B657220343030300A006C0000203F
:1059E00054686520466C69636B6572206973202575
:1059F000660D0A005472795F436F756E74203D2006
:105A000025640D0A0000000054686572652061720B
:105A100065204E4F54206D6F72652052414D210D0F
:105A20000A0000003A73616D706C653A7920256454
:105A30002C25640A0000000009000000666C696300
:105A40006B6572204A45495441203D2025666442D9
:105A5000200D0A000020F4490880F4490870002451
:105A6000F3A1F6480068FFF7CDFA04E00120FDF746
:105A7000A8FB601C84B2ED48007810B9B4F57A7FB9
:105A8000F4DBEF4800783E2803D1ED4840783E280B
:105A900002D0B4F57A7F00DB00E004E0281EA5F117
:105AA0000101CDB2D6D100BFE54810F087FCE54931
:105AB000086008460168E4A011F076FC2946AFF2C0
:105AC000CC0011F071FC70BD70B5032523E00020FF
:105AD000D5490880D54908700024DFA1D74800685F
